:020000040800F2
:10000000280E0020A1010008A9010008152C0008F5
:10001000AD010008AF010008B101000800000000B8
:10002000000000000000000000000000B301000814
:10003000B501000800000000B7010008495600089B
:10004000BB010008BB010008BB010008BB010008A0
:10005000BB010008BB010008DD0E0008ED0E000822
:10006000BB010008BB010008BB010008BB01000880
:10007000BB010008BB010008BB010008BB01000870
:10008000BB010008BB010008E9090008BB0100082A
:10009000BB010008BB010008BB010008BB01000850
:1000A000BB010008BB010008BB010008BB01000840
:1000B000155700083D570008BB010008BB010008A8
:1000C000BB010008BB010008BB010008BB01000820
:1000D000BB01000849690008BB010008BB0100081A
:1000E000BB010008BB010008BB010008495700081C
:1000F00075570008BB010008BB010008BB010008E0
:10010000BB010008BB010008BB010008BB010008DF
:10011000BB010008015E0008BB010008BB0100082C
:10012000BB010008BB010008BB010008BB010008BF
:10013000BB010008BB010008BB010008BB010008AF
:10014000BB010008BB010008BB010008BB0100089F
:10015000BB010008BB010008BB010008BB0100088F
:10016000BB010008BB010008BB010008BB0100087F
:10017000BB010008BB010008BB010008BB0100086F
:10018000BB010008BB010008DFF810D000F09EFBA7
:10019000004800479D920008AFF30080280E002021
:1001A0000648804706480047FEE7FEE7FEE7FEE711
:1001B000FEE7FEE7FEE7FEE7FEE7FEE7F95600088A
:1001C000890100082DE9F05F0546002092469B4614
:1001D00088460646814640241BE02846414647465D
:1001E000224600F02DFA53465A46C01A914110D3C8
:1001F00011461846224600F014FA2D1A67EB010842
:100200004F4622460120002100F00BFA17EB0009AF
:100210004E41201EA4F10104DFDC484631462A4647
:100220004346BDE8F09F40EA01039B0703D009E085
:1002300008C9121F08C0042AFAD203E011F8013BD2
:1002400000F8013B521EF9D27047D2B201E000F82B
:10025000012B491EFBD270470022F6E710B513466A
:100260000A4604461946FFF7F0FF204610BD2DE967
:10027000FE4F804681EA0300C00F0C46009021F03B
:10028000004123F00045B8EB0200A94105D24046E9
:10029000214690461C460B46024623F00040104380
:1002A00047D0270DC7F30A00C3F30A510290401A42
:1002B000019040286BDAC3F3130040F4801B0098D0
:1002C000924620B10023D2EB030A63EB0B0B01989B
:1002D0005946C0F14002504600F0A3F906460D46CB
:1002E00050465946019A00F0BBF910EB08006141F5
:1002F000002487EA115284EAE7731A4340D0009A37
:1003000062B3019A012A4FEA075215DC001B61EB28
:1003100002014FF0004202EA0752CDE90042001C00
:1003200041F5801132462B4600F0F2F903B0BDE8EA
:10033000F08F40462146F9E7001B61EB0201001CEB
:1003400041F5801300185B412018A2F5001747EB18
:10035000030140EAD570B6196D4111E06D084FEA0E
:10036000360645EAC0754FEA0752001B61EB0201F1
:10037000001C41F5801149084FEA30000019514135
:1003800032462B4603B0BDE8F04F00F0B2B90098FA
:10039000012240000023D0EB020263EBE0730098DF
:1003A00021464FEAE074B8EB000061EB0401E9E795
:1003B00083F000435BE781F0004158E72DE9FE4FF1
:1003C00081EA030404F0004421F0004100944FF05E
:1003D000000B23F0004350EA01045ED052EA03040C
:1003E0005BD0C3F30A54C1F30A552C44A4F2F3348E
:1003F0000194A0FB0254C1F3130141F48011C3F333
:10040000130343F4801301FB024400FB034E840AF0
:10041000970A44EA815447EA8357A4FB0768029588
:100420008D0A05FB07854FEA932C04FB0C54270526
:10043000029D4FEA065847EA1637B5EB08056EEB02
:10044000070C870E920E47EA811742EA8312A7FB38
:100450000201B6EB0B0164EB00042B0D43EA0C33F5
:100460005E1844EB1C50DA465146E7FB0201C5F327
:1004700013044FEA0B3343EA14534FEA0432019C4E
:1004800043EA0603A4F10C040294009CCDE900B4F5
:1004900000F03EF903B0BDE8F08F00200146F9E717
:1004A0002DE9F04D81EA030404F0004B21F00045F2
:1004B00014464FF0000A23F0004150EA050220D014
:1004C00054EA01021DD0C5F30A570246C5F31303CF
:1004D000C1F31300C1F30A5640F4801543F48013AE
:1004E000A7EB0608101BD64608F2FD3873EB050093
:1004F00002D308F1010801E092185B41B8F1000F46
:1005000003DA00200146BDE8F08D00204FF4801191
:10051000064684460EE0171B73EB050705D3121B36
:1005200063EB050306434CEA010C49084FEA30002F
:1005300092185B4150EA0107EDD152EA030012D054
:1005400082EA040083EA0501084305D0101BAB4191
:1005500006D20122002306E000224FF0004302E011
:100560006FF0010253101AEB06004CEB085110EB30
:100570000A0041EB0B01BDE8F04D00F0BAB80EB532
:1005800040F2334102910021CDE900110A460B46A9
:1005900000F0BEF803B000BD00F0004230F00040B3
:1005A0000AD0C10D01F56071C0F3160042EA015195
:1005B000C20840071143704700200146704701F010
:1005C000004330B421F0004150EA010206D00A0D88
:1005D000A2F56072C1F31301002A02DC30BC0020D6
:1005E0007047440F44EAC104C100E01830BC00EB7E
:1005F000C25000F047B830B50B460146002020221B
:10060000012409E021FA02F59D4205D303FA02F51F
:10061000491B04FA02F52844151EA2F10102F1DC7F
:1006200030BD202A04DB203A00FA02F10020704796
:100630009140C2F1200320FA03F319439040704720
:10064000202A04DB203A21FA02F00021704721FA27
:1006500002F3D040C2F1200291400843194670478E
:10066000202A06DBCB17203A41FA02F043EAE07376
:1006700006E041FA02F3D040C2F120029140084363
:10068000194670470029A8BF7047401C490008BFA1
:1006900020F00100704710B4B0FA80FC00FA0CF0B2
:1006A00050EA010404BF10BC704749B1CCF12004EA
:1006B00021FA04F411FA0CF118BF01212143084377
:1006C000A3EB0C01CB1D4FEA00614FEA102042BFA3
:1006D000002010BC704700EBC35010440029A4BF99
:1006E00010BC7047401C490008BF20F0010010BC3E
:1006F000704710B5141E73F1000408DA401C41F174
:10070000000192185B411A4301D120F0010010BD95
:100710002DE9F04D92469B4611B1B1FA81F202E00B
:10072000B0FA80F220329046FFF77BFF04460F4676
:1007300040EA0A0041EA0B0153465A46084313D0E7
:10074000114653EA010019D0C8F140025046FFF7A4
:1007500077FF05460E46504659464246FFF761FF71
:10076000084305D0012004E020463946BDE8F08D5D
:100770000020054346EAE0762C4337430A98630598
:10078000E40AA0EB08000022FD0A44EA47540A30BC
:1007900002D500200146E9E7010510196941DDE9AC
:1007A000084500196941BDE8F04DA2E770B521F098
:1007B000004303430CD0C1F30A550024D5EB0405D4
:1007C00064EB0403D617AD1AB34102DB00200146E7
:1007D00070BD201841EB025170BD0EB5C10F80EA0B
:1007E000E0700844CA07002140F233438DE80E0050
:1007F0000A460B46FFF78CFF03B000BD70B5C1F38E
:100800000A5201F000450024C1F3130140F2FF3306
:1008100041F480119A4201DA002070BD40F2334366
:100820009A42A2F2334203DC5242FFF709FF00E092
:1008300090402C43F1D0404270BDC1F30A52C1F345
:10084000130140F2FF3341F480119A4202DA002092
:100850000146704740F233439A42A2F2334202DC2F
:100860005242FFF7EDBEFFF7DCBE000030B5041EBC
:1008700071F1000404DB4FF00044404264EB0101DD
:10088000141E73F1000405DB1C464FF00043524276
:1008900063EB04038B4208BF824230BD30B5041EB7
:1008A00071F1000404DB4FF00044404264EB0101AD
:1008B000141E73F1000405DB1C464FF00043524246
:1008C00063EB0403994208BF904230BD064C074DCC
:1008D00006E0E06840F0010394E807009847103410
:1008E000AC42F6D3FFF754FCD09A0008F09A000807
:1008F0002DE9F04D00231A461B1A8A4103DB002024
:100900000146BDE8F08DC1F30A52C1F3130141F471
:1009100080154FF0000BD10702D100186D41521E17
:100920000027044640F2FF11384601EB620A3E46BA
:100930008046024600204FF48011FFF781FEC21965
:100940007141BB1846EB0100B4EB030C75EB000CD6
:1009500004D3E41A65EB000517460E46241908F186
:1009600001006D4180463428E3DDF91946EB0600AD
:10097000091BA84103D24FF0FF32134601E00022C9
:1009800013461BEB070046EB0A51BDE8F04DFFF79D
:10099000B0BE70B58C1810F8015B15F0070301D1DB
:1009A00010F8013B2A1106D110F8012B03E010F8D2
:1009B000016B01F8016B5B1EF9D12B0705D40023F5
:1009C000521E0DD401F8013BFAE710F8013BCB1A97
:1009D000921C03E013F8015B01F8015B521EF9D58C
:1009E000A142D8D3002070BD0B4810B50168C1F3F7
:1009F000800121B1016821F00C01016005E0D0F80F
:100A0000001221F00C01C0F8001205F0A5F8BDE8B5
:100A1000104005F08DBC0000002001404A494A68A2
:100A200022F440324A604A6843681A434A600168C7
:100A30004A6822F480724A6001684A68036942EA9F
:100A400003224A6001684A6822F040724A600168E5
:100A50004A6883681A434A6001688A6822F400621F
:100A60008A6001688A68C3681A438A60816A6FF085
:100A70007062D14214D001688A6822F070628A6084
:100A800001688A68836A1A438A6001688A6822F06A
:100A900040528A6001688A68C36A1A438A6009E022
:100AA00001688A6822F070628A6001688A6822F0B0
:100AB00040528A6001688A6822F002028A600168F6
:100AC0008A68037E42EA43028A6090F8201089B166
:100AD00001684A6842F400624A6001684A6822F488
:100AE00060424A6001684A68436A5B1E42EA4332D8
:100AF0004A6004E001684A6822F400624A600168C2
:100B0000CA6A22F47002CA620168CA6A838B5B1ED9
:100B100042EA0352CA6201688A6822F400728A605B
:100B200001688A6890F8303042EA43228A6001689E
:100B30008A6822F480628A6001688A68406942EAB1
:100B400080208860704700000023014003B481B01A
:100B500002990091BDF9081011FB01F2BDF90A30AC
:100B600013FB0322B0F800C00CFB0CFC944518D218
:100B7000120E90F8B0C0A2EB0C02D2B200EB420011
:100B8000428801FB02F0C11700EB5140C013ADF8E1
:100B9000000003FB02F0C11700EB5140C013ADF899
:100BA0000200009803B070472DE9F04104461F4D44
:100BB000E08EEF134FF47006012819D194F830102D
:100BC000204605F015FC07FA80F296FAA6F17801A6
:100BD000B1FA81F1C84005EB800000F10801086816
:100BE0006FF30F1010430860686840F00100686000
:100BF000208F012818D194F83110204605F0F8FB19
:100C000007FA80F196FAA6F24FF48000B2FA82F267
:100C1000D04005EB800082686FF30F1211438160B2
:100C2000686840F002006860BDE8F0810074004030
:100C3000084490F83000704700EB4100B0F93200F2
:100C400070470000C28E0749012A03D10A6842F0AA
:100C500001020A60008F012803D1086840F4803047
:100C60000860704700740040084480F830207047E6
:100C700000EB41004286704770B504460125A0890B
:100C8000002804D0401E80B2A08110B10025284663
:100C900070BDB4F91400217E90FBF1F001B2A068A0
:100CA00000F00BF90120A073F1E7C07B70470160F1
:100CB0004260836000218173C1737047807B7047FD
:100CC000C173704710B5044600221146606805F0F4
:100CD0008EFEB4F91410606805F0C2FE0021206891
:100CE00004F0DCFB00221146206804F058FBE28A85
:100CF000B4F91210206804F052FBE08A218A4843BC
:100D00004FF47A71B0FBF1F0401CA08110BD016A74
:100D1000496A026F5143C27A4A43D31702EB134226
:100D200012140280CB1701EB1341091441801046C5
:100D300070472DE9F041046A4FF0000C0022057F56
:100D4000636A878C00268684246804F01008012FCB
:100D500002D9012480F87640C78A048DB8F1100FBB
:100D600004D09C4212D94FF0010811E09C4202D2FB
:100D70004FF0010801E04FF000081C1B08FB17446E
:100D800090F86C7000EB8707FC6209E04FF00008F8
:100D90001C1B08FB074490F86C7000EB8707FC6293
:100DA000002D07D900EB8204E46AA444521CD2B29D
:100DB000AA42F7D3428B02FB0CFCC28A047F624337
:100DC0009CFBF2F20A80B0F804C0A2EB0C0CA0F875
:100DD00008C0828090F86C20B0F874C000EB8202EA
:100DE000D26A02FB0CF290F80BC002FB0CF2B0F8D6
:100DF00016C092FBFCF2C2EB0242B0F814C092FBA8
:100E0000FCF2C280038590F86C20521C80F86C20A4
:100E100090F86C20037F9A4201D180F86C6090F8C2
:100E200076202AB1002180F82660027C827202E0DE
:100E300004F04BFA01460846BDE8F0810021027F2C
:100E4000002A08D9002200EB8103DA62491CC9B2EA
:100E5000037F8B42F7D8012180F826107047818CE0
:100E6000491C818400207047016A00224A62C28ABC
:100E70004FF0FF33B3FBF2F20267428B4CF6CD43E7
:100E80005A43D20CA0F874206FF001020A61CA68BC
:100E900042F00102CA600A6842F001020A60027F61
:100EA0000021002A08D9002300EB810CCCF82C305B
:100EB000491CC9B29142F7D37047026A4FF6FF73DB
:100EC000002903DA494289B2591A00E089B2C08A7E
:100ED0004843B0FBF3F080B25062704702490120F2
:100EE000086005F0EEBB0000143C0140022000F059
:100EF000FFBB0021002812D0017843785A18002146
:100F0000002B09D900EB010C9CF802C0624492B29C
:100F1000491CC9B28B42F5D802EB1220C1B2084677
:100F20007047002141820175417580F8961080F864
:100F3000971080F8981080F8991080F89A1080F82F
:100F40001B1180F81C1180F81D117047DDF800C0DE
:100F5000002804D0016042608360C0F80CC0704774
:100F600000EB400101EB001210B5074901EB420410
:100F700094F82410002906D1044951F8200004F007
:100F8000D6F9E083208210BD980800203C0600209E
:100F900010B5044600EB440000EB04121348002196
:100FA00000EB4202124811605160D1601161D1839F
:100FB000C2F81610C2F81A10118450F8240002F07A
:100FC0008CFF0B480021001D50F8240002F085FF23
:100FD0000748083850F8240004F0D9F904481030C4
:100FE00050F82400BDE8104003F024B99808002010
:100FF000440600202DE9F84F05462B4850F82500FF
:1010000004F034FA04F054F9DFF89C90804609F1BA
:101010001809694659F8250003F011F8009801F005
:1010200059FF8246414601F083FF074605EB450024
:1010300000EB05111D4800EB410439B2B4F9100072
:10104000411AA9F1100050F8250002F04FFF60F39B
:101050000F06B4F91200A0EB2741A9F10C0050F8DB
:10106000250002F043FF60F31F4609F10800C4F8B1
:101070001660314650F82500FFF768FD414601F043
:101080009DFF0646314659F8250002F0DAFF014679
:1010900000982060C4F804A0E760C4F81A60A4F8BF
:1010A00020800846BDE8F88F3C0600209808002004
:1010B00030B4DFF8F8C18A6990F83C20012A1BD0CF
:1010C000012280F83C200A680724092A17D90368FE
:1010D000DD680A3A02EB420204FA02F225EA020251
:1010E000DA600A788B680A3A02EB4202934002689F
:1010F000D4682343D36014E030BC022070470368F7
:101100001D6902EB420204FA02F225EA02021A61A8
:101110000A788B6802EB4202934002681469234309
:1011200013610268936B23F4401393630268936B1B
:101130000C8A641E43EA045393630A790B7CD21A27
:10114000D21C02EB82021F2393400268946B24EAB4
:10115000030393630A790B7CD21A0B88D21C02EB2F
:1011600082029BB293400268946B234393638A6923
:10117000624518D00268936823F470239360026874
:101180009368D1F818C043EA0C039360026893682F
:1011900023F44013936002689368D1F81CC043EABB
:1011A0000C03936009E00268936823F47023936052
:1011B0000268936823F4401393604A7D2AB1026861
:1011C000536843F48063536004E00268536823F477
:1011D000806353600A7D2AB10268536843F48053E8
:1011E000536004E00268536823F4805353604A68F4
:1011F000012A1BD0022A26D0032A31D00268136AA2
:101200006FF30B0313620268136AD1F80CC043EA50
:101210000C031362264A274BD0F800C09C4532D1FC
:10122000D1F800C0BCF1120F27D02CE0026853693E
:101230006FF30B03536102685369D1F80CC043EAA2
:101240000C035361E6E7026893696FF30B03936144
:1012500002689369D1F80CC043EA0C039361D9E7A3
:101260000268D3696FF30B03D3610268D369D1F8C5
:101270000CC043EA0C03D361CCE7D2F804C04CF4B1
:10128000800CC2F804C0D0F800C09C4508D10968A1
:10129000102901D0112903D1516841F40001516096
:1012A000002180F83C1030BC0020704701000F0086
:1012B000002301400020014038B44FF0000CCDF86D
:1012C00000C090F83C20012A1BD0012280F83C206D
:1012D0000A680724092A17D90368DD680A3A02EB6D
:1012E000420204FA02F225EA0202DA600A788B6806
:1012F0000A3A02EB420293400268D4682343D36067
:1013000014E038BC0220704703681D6902EB4202FA
:1013100004FA02F225EA02021A610A788B6802EBEB
:101320004202934002681469234313614A681F24F0
:10133000072A15D203685D6B521E02EB820204FA83
:1013400002F225EA02025A630A8893B20A79521E0F
:1013500002EB820293400268546B234353632CE0F8
:101360000D2A15D203681D6BD21F02EB820204FA0C
:1013700002F225EA02021A630A8893B20A79D21F9E
:1013800002EB820293400268146B2343136314E060
:101390000368DD6A0D3A02EB820204FA02F225EAE2
:1013A0000202DA620A8893B20A790D3A02EB8202EB
:1013B00093400268D46A2343D362184A184B0468E6
:1013C0009C4206D10C68122C03D1546844F480046A
:1013D000546004689C421CD10B68102B01D0112B67
:1013E00017D1536843F4000353600968102910D1E2
:1013F0000C490D4A0968B1FBF2F101EB810149008A
:101400000091009929B10099491E00910099002985
:10141000F9D180F83CC038BC00207047002301405F
:10142000002001408006002040420F0070B50446B5
:101430000025002C03D0206C002610B107E001200D
:1014400070BD204600F01EF8666484F83C60206C95
:1014500010F0100F04D0012584F83C60284670BDC0
:10146000206C20F4885040F0020020642046FFF7F2
:10147000D5FA6664206C20F0020040F00100206480
:10148000EAE700002DE9F04186B0044614216846E1
:10149000FEF7E2FE3148304B226800252F49143810
:1014A000032440262E4FDFF8BC809A4227D10A68D9
:1014B00042F480720A60096801F480710591016844
:1014C00041F004010160016801F004010591016827
:1014D00041F001010160016801F00101059101681D
:1014E00041F0020101600068694600F002000590C9
:1014F00009208DE831001C4800F006F91AE01B4B6A
:101500009A4225D10A6842F400720A60096801F41F
:1015100000710591016841F001010160016801F06D
:1015200001010591016841F002010160006800F0CD
:1015300002000590009669463846CDE9014500F065
:10154000E3F8009469464046CDE9014500F0DCF837
:1015500006B0BDE8F08100000020014044380240A0
:101560000000024000040240000802400021014047
:1015700030B44379012B21D001244471022303713B
:101580000368D3F800C040F6FE7595402CEA050CC0
:101590000D6849682943914041EA0C0119600168CE
:1015A0000B684FF0C00C0CFA02F223EA02020A6048
:1015B00004710021417130BC0020704730BC022012
:1015C000704770B50446002C03D02079002510B177
:1015D00005E0012070BD6571204600F007F802208B
:1015E0002071256101202071002070BD10B586B0EA
:1015F000044614216846FEF72FFE114920688842F0
:101600001CD110480021026842F0005202600068BC
:1016100000F0005005900B481038026842F00102BB
:101620000260006800F00100059030200090032067
:10163000CDE901016946044800F066F806B010BD26
:1016400000740040403802400000024090F835101D
:10165000022903D08021416501207047052180F8CF
:1016600035100068016821F0010101600020704719
:1016700070B5044600F07CF90546B4F1FF3F02D096
:1016800004480078044400F073F9401BA042FAD3E8
:1016900070BD00008406002010B5022814D10BA0F4
:1016A00005F0E6F90221104800F05AF900280BD1A4
:1016B0000E4C6068002807D14220002102F016F885
:1016C00002F054F80120606010BD000068616E6493
:1016D0006C655F676F686F6D655F746573743A20E2
:1016E00073746172740A0000001002400000002050
:1016F00010B504490A68024202D00860FFF7CCFF27
:1017000010BD0000143C01402DE9F84F00220324D5
:101710008E4E8F4F0F25012303FA02F80B6803EA60
:10172000080343457DD1D1F804C0BCF1010F08D0B6
:10173000BCF1020F05D0BCF1110F02D0BCF1120FA9
:101740001DD1D0F808904FEA420C04FA0CFA29EAAD
:101750000A09D1F80CA00AFA0CFC4CEA090CC0F8F2
:1017600008C0D0F804C02CEA080C91F80480C8F333
:10177000001808FA02F848EA0C0CC0F804C0D0F8C7
:101780000C904FEA420C04FA0CF829EA0809D1F847
:1017900008A00AFA0CFA4AEA0909C0F80C90D1F834
:1017A0000490B9F1020F02D0B9F1120F15D14FEA2E
:1017B000D20900EB8909D9F820B04FEA427A4FEA02
:1017C000DA6A05FA0AFE2BEA0E0BD1F810E00EFADF
:1017D0000AFA4AEA0B0AC9F820A0D0F8009029EAD0
:1017E000080891F8049009F0030909FA0CFC4CEA86
:1017F000080CC0F800C0D1F804C01CF0805F10D005
:10180000D6F800C04CF4804CC6F800C0D6F800C032
:101810000CF4804CCDF800C022F0030C0CF1804990
:1018200000E075E009F59839D9F808C84FEA8278E0
:101830004FEA187805FA08FA2CEA0A0AA0F1804C57
:10184000BCF5003C6AD0A0F1804CBCF5013C68D0EE
:10185000A0F1804CBCF5023C66D0A0F1804CBCF5F8
:10186000033C64D0A0F1804CBCF5043C62D0A0F1F4
:10187000804CBCF5053C60D0A0F1804CBCF5063C2A
:101880005ED0A0F1804CBCF5073C5CD04FF0080C5A
:101890000CFA08FC4CEA0A0CC9F808C8DFF8B48056
:1018A000D8F800C02CEA030CD1F8049019F4803F5A
:1018B00001D04CEA030CC8F800C0DFF89C80D8F8CF
:1018C00000C02CEA030CD1F8049019F4003F01D0B9
:1018D0004CEA030CC8F800C0D7F800C02CEA030C8F
:1018E000D1F8048018F4801F01D04CEA030CC7F82B
:1018F00000C0DFF86880D8F800C02CEA030CD1F8EB
:10190000049019F4001F01D04CEA030CC8F800C081
:10191000521C102AFFF4FFAEBDE8F88F4FF0000C08
:10192000B6E74FF0010CB3E74FF0020CB0E74FF011
:10193000030CADE74FF0040CAAE74FF0050CA7E746
:101940004FF0060CA4E74FF0070CA1E74438024023
:10195000083C0140003C0140043C01400C3C01407B
:101960000069084201D00120704700207047000044
:1019700001488068704700008406002002488168A2
:1019800002781144816070478406002010B50B482E
:10199000016841F400710160016841F480610160F7
:1019A000016841F480710160032000F087F8042091
:1019B00000F006F800F026F8002010BD003C0240C0
:1019C00070B504460D4D4FF47A712878B1FBF0F0F4
:1019D0000B490968B1FBF0F000F0DEFB08B1012013
:1019E00070BD102C07D200222146501E00F032F8A4
:1019F0006C60002070BD012070BD000084060020D6
:101A0000800600200B4882B0016841F480410160EB
:101A1000006800F4804000900648001F016841F013
:101A200080510160006800F080500090042002B0F6
:101A300000F044B84438024000280ADB00F01F01DF
:101A4000012202FA01F14009800000F1E020C0F813
:101A50000011704710B4184B1B68C3F30223C3F185
:101A6000070CBCF1040F01D94FF0040C1C1D072C0E
:101A700001D2002300E0DB1E012404FA0CFCACF1CF
:101A8000010C0CEA0101994004FA03F35B1E1A40B1
:101A90001143002806DB00F1E020090180F8001462
:101AA00010BC704700F00F0000F1E020090180F841
:101AB000141D10BC704700000CED00E000F00700A2
:101AC000064A11684FF6FF03194041EA002040F032
:101AD000FD7040F080601060704700000CED00E089
:101AE0002DE9F04704460D46002C13D0DFF8549141
:101AF000D9F80000EFB200F00F00A8420DD289F82B
:101B00000070D9F8000000F00F00A84205D00120B5
:101B1000BDE8F0870120BDE8F08720684A4E10F04C
:101B2000020F14D010F0040F03D0306840F4E050DE
:101B30003060207810F0080F03D0306840F4604027
:101B400030603068A16820F0F000084330602078F1
:101B500010F0010F3ED060683C49012808D00228EF
:101B60000DD003280BD0096811F0020F28D00AE02D
:101B7000096811F4003F06D10120BDE8F08709682B
:101B800011F0007F19D0316821F003010843306063
:101B9000FFF7EEFE80463068616800F00C00B0EBA5
:101BA000810F17D041F2883AFFF7E2FEA0EB080060
:101BB000504508D90320BDE8F0870120BDE8F08733
:101BC0000120BDE8F0873068616800F00C00B0EBE0
:101BD000810FE9D1D9F8000000F00F00A8420AD91E
:101BE00089F80070D9F8000000F00F00A84202D078
:101BF0000120BDE8F087207810F0040F05D0306890
:101C0000E16820F4E05008433060207810F0080FBD
:101C100006D03068216920F4604040EAC10030609D
:101C200000F048F831680A4AC1F30311515CC8401A
:101C30000849086008480068FFF7C2FE0020BDE8B8
:101C4000F0870000003C02400838024000380240A3
:101C500064960008800600208806002001490120C3
:101C6000C8647047000047420148006870470000A0
:101C70008006002000B5FFF7F7FF04490968044A11
:101C8000C1F38221515CC84000BD00000838024009
:101C90007496000800B5FFF7E7FF04490968044A95
:101CA000C1F34231515CC84000BD00000838024019
:101CB0007496000810B51748006810F00C0116481B
:101CC00016D04310042912D0082911D1134C2168D1
:101CD00001F03F02216811F4800F0AD02068C0F3A0
:101CE0008810A0FB03010023FEF76CFA09E01846F8
:101CF00010BD21680023C1F38811A1FB0001FEF78C
:101D000061FA2168C1F30141491C4900B0FBF1F0BF
:101D100010BD0000083802400024F40004380240DE
:101D20002DE9F84F0446002C12D02078FB4E10F01D
:101D3000010FA6F1040563D0301D016801F00C010C
:101D400004290CD0006800F00C00082803D010E033
:101D50000120BDE8F88F306810F4800F09D02868A2
:101D600010F4003F4CD06068002849D10120BDE844
:101D7000F88F6068B0F5803F14D0B0F5A02F16D072
:101D8000286820F480302860286820F480202860AB
:101D9000606810B3FFF7ECFD0746286810F4003FB9
:101DA0000ED02DE0286840F480302860F0E72868E5
:101DB00040F480202860286840F480302860E7E7FD
:101DC000FFF7D6FDC01B642802D90320BDE8F88FB9
:101DD000286810F4003FF3D012E0FFF7C9FD074672
:101DE000286810F4003F0BD0FFF7C2FDC01B642829
:101DF00002D90320BDE8F88F286810F4003FF3D122
:101E00002078C74F10F0020F4FF0000957D0C54897
:101E1000016811F00C0F14D0006800F00C000828C5
:101E200003D1306810F4800F0BD0E06880B301203C
:101E30003860FFF79DFD8046286810F0020F12D031
:101E40001EE0286810F0020F05D0E068012802D0DB
:101E50000120BDE8F88F2868216920F0F80040EAE9
:101E6000C10028602BE0FFF783FDA0EB08000228EB
:101E700002D90320BDE8F88F286810F0020FF2D0D5
:101E80002868216920F0F80040EAC100286016E0C7
:101E9000FFE7C7F80090FFF76BFD8046286810F059
:101EA000020F0CD0FFF764FDA0EB0800022802D956
:101EB0000320BDE8F88F286810F0020FF2D12078D7
:101EC00010F0080F35D09848DFF860A26169C1B101
:101ED00001210160FFF74CFD8046DAF8000010F0A8
:101EE000020F26D1FFF744FDA0EB0800022802D91B
:101EF0000320BDE8F88FDAF8000010F0020FF1D0EF
:101F000017E0C0F80090FFF733FD8046DAF80000D4
:101F100010F0020F0DD0FFF72BFDA0EB08000228F8
:101F200002D90320BDE8F88FDAF8000010F0020FA4
:101F3000F1D1207810F0040F71D04FF000087C48E8
:101F4000006810F0805F0AD17948016841F0805143
:101F50000160006800F0805000904FF00108DFF849
:101F6000D4B1DBF8000010F4807F1BD1DBF8000057
:101F700040F48070CBF80000FFF7FAFC8246DBF8F3
:101F8000000010F4807F0DD1FFF7F2FCA0EB0A00F7
:101F9000022802D90320BDE8F88FDBF8000010F416
:101FA000807FF1D0A068DFF890B1012818D0052813
:101FB0001DD0DBF8000020F00100CBF80000DBF8BA
:101FC000000020F00400CBF80000A06840B3FFF749
:101FD000CFFC8246DBF8000010F0020F14D03EE088
:101FE000DBF8000040F00100CBF80000EDE7DBF883
:101FF000000040F00400CBF80000DBF8000040F0E7
:102000000100CBF80000E0E7FFF7B2FCA0EB0A010B
:1020100041F28830814204D90320BDE8F88F26E0E0
:1020200005E0DBF8000010F0020FEDD017E0FFF73D
:102030009FFC8246DBF8000010F0020F0FD0FFF784
:1020400097FCA0EB0A0141F28830814202D90320BB
:10205000BDE8F88FDBF8000010F0020FEFD1B8F107
:10206000010F04D13248016821F080510160A0695C
:10207000F0B32C49096801F00C01082968D0022846
:1020800010D0C7F86090FFF773FC0446286810F082
:10209000007F7ED0FFF76CFC001B022853D9032081
:1020A000BDE8F88FC7F86090FFF762FC80462868AB
:1020B00010F0007F0CD0FFF75BFCA0EB08000228BB
:1020C00002D90320BDE8F88F286810F0007FF2D114
:1020D000216AE069A26A0843616A4FF0FF3389010F
:1020E00003EB520241EA0241084394F82C1000E04D
:1020F0004FE040EA0160306001203866FFF738FCAD
:102100000446286810F0007F43D1FFF731FC001B24
:10211000022813D90320BDE8F88F000004380240DC
:102120000000474208380240800E4742743802409F
:10213000403802400070004070380240286810F0BB
:10214000007FE2D025E0286810F0007FA2D120E0D7
:1021500001281CD03068E26900F48001914214D15A
:10216000226A00F03F0191420FD147F6C071626AC6
:102170000140914209D1A26A00F44031914204D158
:10218000E16A00F07060884203D00120C3E70120BB
:10219000C1E70020BFE77047401EB0F1807F01D348
:1021A000012070474FF0E0214861044AF020107090
:1021B00000208861072008610020704723ED00E0BF
:1021C00010B5FFF7E8FF10BD7047704790F83C204E
:1021D000012A2CD0012280F83C20CA680023D1F8C3
:1021E00008C022F4407242EA0C02D1F804C022F482
:1021F000806242EA0C02D1F800C022F4006242EA96
:102200000C02D1F810C022F4805242EA0C02D1F83C
:1022100014C022F4005242EA0C02C96922F480423E
:1022200011430268516480F83C300020704702205E
:10223000704730B490F83C20012A44D0012480F843
:102240003C40022280F83D200268D2F804C0936826
:102250002CF0700C0D6845EA0C0CC2F804C0026842
:10226000A2F1804CBCF5803C20D0B2F1804F1DD053
:10227000A2F1804CBCF5806C18D0A2F1804CBCF56A
:10228000006C13D0A2F1804CBCF5406C0ED0A2F1D2
:10229000804CBCF5823C09D0A2F1804CBCF5A03C3E
:1022A00004D0A2F1804CBCF5C05C04D123F08003C3
:1022B00049681943916080F83D40002180F83C1046
:1022C00030BC0020704730BC0220704710B5044677
:1022D000002C03D094F83D0010B107E0012010BDA0
:1022E000002084F83C00204600F00CF8022084F81E
:1022F0003D00211D206803F049FA012084F83D00CB
:10230000002010BD08B500680649884208D106487B
:10231000016841F002010160006800F002000090D5
:1023200008BD0000000401404438024070B5044676
:102330000D46002C03D094F83D0010B107E00120B9
:1023400070BD002084F83C00204600F04FF80220C9
:1023500084F83D002068816821F0070121F4804164
:102360008160211D206803F011FA2068816882696C
:10237000036AD5F800C04CEA010122F0030222F4FE
:102380004072AE69D5F808C042EA06224CEA020261
:1023900022F00C0222F4406222F0F00222F4704299
:1023A000EE69D5F80CC042EA06224CEA0202D5F8E2
:1023B00010C02E6A4FEA0C1C4CEA063C4CEA0202A2
:1023C00023F0220323F08803D5F804C06D6943EAA3
:1023D00005134CEA03038160206882612068036270
:1023E000012084F83D00002070BD000070B586B06B
:1023F000044614216846FDF72FFF2F482268002469
:102400002D4910380225B2F1804F26D02B4B9A422D
:1024100021D10A6842F002020A60096801F0020153
:102420000591016841F0040101600068694600F00F
:1024300004000590C0200090CDE901542048CDE96A
:102440000345FFF761F9002211461D20FFF702FB4B
:102450001D20FFF7F1FA06B070BD0A6842F00102D4
:102460000A60096801F001010591016841F002016B
:102470000160016801F002010591016841F001016C
:1024800001600068012600F001000590082000901E
:10249000CDE90154CDE9034669460A48FFF734F90E
:1024A000F0030090CDE90154CDE9034669460648A2
:1024B000FFF72AF9CFE7000040380240000400404F
:1024C00000080240000402400000024010B504462B
:1024D0000029206811D0042914D00122002103F022
:1024E000BBF901220421206803F0B6F920680168D5
:1024F00041F001010160002010BD0122002103F024
:10250000ABF9F3E70122042103F0A6F9EEE77047E7
:1025100070B50446206801694FF0000511F0020F04
:1025200017D0C16811F0020F13D0E91E016101201C
:1025300020772068806910F0030F03D02046FFF752
:10254000E6FF05E0204600F0DBF8204600F064F9E5
:1025500025772068016911F0040F18D0C16811F0C7
:10256000040F14D06FF0040101610220207720686D
:10257000806910F4407F03D02046FFF7C8FF05E0D4
:10258000204600F0BDF8204600F046F92577206887
:10259000016911F0080F18D0C16811F0080F14D0AC
:1025A0006FF008010161042020772068C06910F0F5
:1025B000030F03D02046FFF7AAFF05E0204600F0F6
:1025C0009FF8204600F028F925772068016911F06E
:1025D000100F18D0C16811F0100F14D06FF0100157
:1025E0000161082020772068C06910F4407F03D083
:1025F0002046FFF78CFF05E0204600F081F82046DA
:1026000000F00AF925772068016911F0010F09D05F
:10261000C16811F0010F05D06FF001010161204682
:1026200000F0FCF82068016911F0800F09D0C16842
:1026300011F0800F05D06FF0800101612046FFF797
:10264000C3FD2068016911F0400F09D0C16811F085
:10265000400F05D06FF040010161204600F01DF9E8
:102660002068016911F0200F0BD0C16811F0200F14
:1026700007D06FF0200101612046BDE87040FFF7F0
:10268000A4BD70BD30B587B0044614216846FDF77F
:10269000E3FD17492068884227D11648016841F4B4
:1026A00080710160016801F480710591016841F059
:1026B000800101600068022400F080000590E020A5
:1026C000CDE900040325029469460B48CDE9034592
:1026D000FFF71AF84FF46040CDE900040294694610
:1026E0000648CDE90345FFF70FF807B030BD0000FD
:1026F000000401403038024000200240001C02402B
:10270000704770B504460D4694F83C0001280DD082
:10271000012684F83C60022084F83D0042B1042A7E
:102720001AD0082A2DD00C2A53D13EE0022070BDC9
:102730002946206803F0AAF82068816941F0080161
:1027400081612068816921F00401816120688169CB
:102750002A69114381613CE02946206803F0CEF8E4
:102760002068816941F4006181612068816921F4F8
:1027700080618161206881692A6941EA0221816161
:1027800027E02946206803F0F5F82068C16941F088
:102790000801C1612068C16921F00401C16120689C
:1027A000C1692A691143C16113E02946206803F019
:1027B0001DF92068C16941F40061C1612068C169E7
:1027C00021F48061C1612068C1692A6941EA02215E
:1027D000C16184F83D60002084F83C0070BD10B5F4
:1027E0000446002C03D094F83D0010B107E001200E
:1027F00010BD002084F83C00204600F00CF80220B8
:1028000084F83D00211D206802F0C0FF012084F8FB
:102810003D00002010BD7047704700000068074968
:1028200088420AD10648006800680649C20608685E
:1028300001D5401E00E0401C0860704700040040C5
:10284000980700200000002070B5044694F83C0072
:10285000012810D0012584F83C50022084F83D0066
:10286000204603F0EFF8002138B184F83D5084F899
:102870003C10012070BD022070BD2068C26822F0AB
:102880004002C2602068C26822F48042C26084F8BC
:102890003D5084F83C10002070BD70477047000028
:1028A00010B5044622681068D168526900F00F0321
:1028B000002B0AD110F0200F07D011F0200F04D008
:1028C0002046BDE8104003F0C4BA002B71D002F0DE
:1028D000010301F4907C53EA0C0C6AD010F0010F54
:1028E00008D011F4807F05D0D4F83CC04CF0010C26
:1028F000C4F83CC010F0040F08D012F0010F05D04E
:10290000D4F83CC04CF0020CC4F83CC010F0020FEC
:1029100006D012F0010F03D0E26B42F00402E26332
:1029200010F0080F07D001F020021A4303D0E26B29
:1029300042F00802E263E26B002A2ED010F0200F72
:1029400005D011F0200F02D0204603F082FA206853
:102950004069C0F38010E16B11F0080F00D108B39B
:10296000204603F05BFA2068416911F0400F15D052
:10297000416921F040014161606B58B1184901651E
:10298000606BFEF763FE002807D0606B016DBDE849
:10299000104008472046FFF781FF10BD2046FFF793
:1029A0007DFF10BD2046FFF779FF0020E06310BDDA
:1029B000FFE710F0800F07D011F0800F04D0204601
:1029C000BDE8104003F062BB10F0400FEFD011F0F3
:1029D000400FECD02046BDE8104003F02DBA0000B7
:1029E0000D5E000870B50446002C04D094F8390040
:1029F000002510B106E0012070BD84F83850204653
:102A000000F022F8242084F839002068C16821F4FD
:102A10000051C160204603F06BFA2068016921F47F
:102A2000904101612068416921F02A0141612068DB
:102A3000C16841F40051C160E563202084F8390089
:102A400084F83A00002070BDF0B587B00446142128
:102A50006846FDF701FC304A216800242F48022512
:102A6000914237D12D4910310A6842F480120A6030
:102A7000096801F480110591016841F004010160C9
:102A8000016801F004010591016841F0080101604D
:102A90000068012600F008000590E8028DE861005A
:102AA0000827CDE9034769461D48FEF72DFE04209F
:102AB0008DE86100CDE9034769461A48FEF724FE18
:102AC000002211463520FEF7C5FF3520FEF7B4FF82
:102AD00007B0F0BD144A9142FAD1104914310A6886
:102AE00042F010020A60096801F0100105910168C6
:102AF00041F0020101600068694600F002000590A3
:102B0000C0200090CDE901540720CDE903400748DB
:102B1000FEF7FAFDDCE700000050004030380240CC
:102B200000080240000C0240001001400004024076
:102B300070472DE9F84304460D4690461E4694F82A
:102B40003900202802D00220BDE8F8836DB3B8F127
:102B5000000F2AD094F83800012829D0012084F8E9
:102B600038004FF00009C4F83C90212084F8390067
:102B7000FEF7FEFE0746A4F82480A4F8268084F819
:102B80003890E08CA0B3E08C401EE084A068B0F5E3
:102B9000805F10D03B46002280212046009603F043
:102BA000A8FAF0B10320BDE8F8830120BDE8F8835E
:102BB0000220BDE8F8833B46002280212046009693
:102BC00003F097FA10B10320BDE8F8832888216844
:102BD000C0F308004860206908B16D1C05E0AD1C19
:102BE00003E0216815F8010B4860E08C0028CAD189
:102BF0003B46002240212046009603F07AFA10B1AD
:102C00000320BDE8F883202084F839000020BDE8C7
:102C1000F883704702F090FF184C00BFD4F82001F1
:102C20000068C0F3C00040B1144803F0A4FAD4F81F
:102C3000200100F08BF803F081FDD4F8200100683A
:102C4000C0F3C01010B10D4803F036FBD4F82001DA
:102C50000168C1F340110029E0D04068C1B20748C3
:102C600003F092FA0088012804D00228D6D103F09C
:102C700065FDD3E703F05CFDD0E70000F40400201D
:102C800008B541F48032C261C161C261C06900907F
:102C900008BD0000012919D0042919D0102919D024
:102CA000402919D0B1F5807F18D0B1F5806F17D0C9
:102CB00006210C4A1830525C104402680A4B595CD9
:102CC000082303FA01F11143016070470021F0E786
:102CD0000121EEE70221ECE70321EAE70421E8E71E
:102CE0000521E6E77C9800088398000801291DD09B
:102CF00004291DD010291DD040291DD0B1F5807F99
:102D00001CD0B1F5806F1BD006210E4B18305B5CD8
:102D10001844D0F800C00C4B595C73238B402CEA4C
:102D2000030302FA01F11943016070470021ECE747
:102D30000121EAE70221E8E70321E6E70421E4E7CD
:102D40000521E2E77C9800088398000808B501682F
:102D500000914068009008BD10B50446606802F01C
:102D60006DFBA168086110BD0068012102F0D6BBAF
:102D700010B50446002C36D0207E012833D1002126
:102D8000207B0022012804D0022811D0032827D15B
:102D90001DE0A06880F824200121606802F07EFB1D
:102DA000E28AB4F90E10606802F0F9FA014617E001
:102DB000A06880F824200021606802F06FFBE28A9E
:102DC000B4F91010606802F0EAFA014608E0A16860
:102DD000012081F82400A068D4F8121001610121BB
:102DE00011B10220207610BD0320207610BD0123F2
:102DF0000373C181C2820376437670470223037353
:102E00000182C2820121017600214176704700686B
:102E100002F052BB10B5406802F028FBBDE810403C
:102E200002F043BA407E704780680068704780684F
:102E3000406870478068C068704780680069704764
:102E40000021027B012A01D1B0F90E10084670471B
:102E5000406802F0FFBA006802F059BB8068B0F920
:102E60001E0070478068D0F81A0070478068D0F85C
:102E70001600704701604260836000210173C181C8
:102E80000182C1820176704703B403210173BDF84A
:102E900004104182BDF806108182012101760021D3
:102EA000417602B0704782685182806881827047A3
:102EB00010B504460321206802F030FB002801D041
:102EC0000121217610BD0068072102F027BB406870
:102ED00002F0EABA01B481B0BDF80400ADF8000018
:102EE00044F6E61110FB01F1BDF8060044F6E612C7
:102EF00010FB02F0014408444042C013B0F5004FFB
:102F000002DB47F6FF7005E010F5004F01DA0748D5
:102F100000E000B2ADF8020010F5004F03D148F216
:102F20000100ADF80200009802B070470080FFFF7A
:102F300033B582B0084600F063F80090BDF9082070
:102F4000BDF900C012FB0CF0BDF90A40BDF902301A
:102F500014FB03F1401AC1131648B1F5004F01DB11
:102F6000410C05E011F5004F01DA014600E009B21D
:102F7000ADF80410104D11F5004F01D1ADF804501B
:102F800002FB03F104FB0CF21144C913B1F5004F2D
:102F900002DB47F6FF7003E011F5004F00DB08B2DB
:102FA000ADF8060010F5004F01D1ADF806500198BC
:102FB00004B030BD0080FFFF0180FFFF13B582B079
:102FC000084600F01DF80190BDF80830BDF8041067
:102FD00013FB01FCBDF80A00BDF8062010FB02F44B
:102FE000A4444FEAEC3CADF800C013FB02F210FB26
:102FF00001F0801AC013ADF80200009804B010BDB3
:1030000081B000F50041890900F5004011F44072DB
:10301000C0F387101B4BC0F1FF011CD0B2F5807FBD
:1030200024D0B2F5007F03D0B2F5407F27D108E06D
:1030300033F81000ADF8020033F81100ADF80000CD
:103040001DE033F81110ADF8021033F810004042C3
:10305000ADF8000013E033F810004042ADF8020074
:1030600033F811004042ADF8000008E033F81110C9
:103070004942ADF8021033F81000ADF80000009896
:1030800001B070477C960008F8B58C460446DDE92F
:103090000710069FC4F830C0C4E9300109481E4635
:1030A00015460090084B094A21466046FDF74EFF41
:1030B00004F13402204682E8E000BDE8F84000F068
:1030C000F5BA0000D1300008D5300008A936000854
:1030D00000F0ECBA2DE9F0430446002648098BB015
:1030E000994615460F465FEA000810D0A8F1010284
:1030F0000021204603F03BFBA8B1D4F8C40007F040
:103100001F0720B1A8F10102002103F030FB0021CC
:103110000D2F72D2DFE807F0A40995A37171A2A167
:10312000A09F9E9D9C000B20E8E12F7805208DF844
:103130002400462F75D027DC0E2F6DD00ADC0E2F11
:103140004ED2DFE807F0514D4D5B4D696969696901
:1031500069696969162F5FD009DCA7F10F0007289C
:103160003ED2DFE800F0595E5E3D3D5959001C2F0C
:1031700046D004DC172F4FD0182F31D14CE01D2F33
:1031800043D0412F2CD147E0612F45D010DCA7F16F
:103190004700152824D2DFE800F0444423232323EA
:1031A00023233F2323233F3F3F3F3F3F3F23440011
:1031B000772F36D00CDC742F20D004DC642F2BD07A
:1031C000652F0DD128E0752F2BD0762F08D128E060
:1031D000782F26D0792F24D07D2F22D07E2F20D07B
:1031E00002208DF824006CE16D7839462A46D4F827
:1031F000C40003F0BCFA2A461DE048E26A781AE0EF
:103200006A780021D4F8C40003E06A780121D4F878
:10321000C40003F0A7FA53E16878A97800EB012213
:1032200009E06878A9782A7900EB0120E978090497
:1032300001EB026142183946204603F098FA06462F
:103240003FE1297803208DF82400832909D209E081
:1032500004E2F1E1E2E1C3E195E181E159E150E10C
:103260004EE14BE18A0000BF7A4452689744000067
:103270000C020000780200000C0200000C020000AA
:103280007802000062020000620200006202000098
:10329000620200006202000062020000620200009E
:1032A000620200006202000062020000620200008E
:1032B000620200006202000062020000620200007E
:1032C000620200006202000062020000620200006E
:1032D000620200006202000062020000620200005E
:1032E00020020000340200007802000062020000A8
:1032F00062020000620200000C0200008C0200006A
:103300008C0200008C0200008C0200008C02000085
:103310008C0200008C0200008C0200008C02000075
:103320008C0200008C0200008C0200008C02000065
:103330008C0200008C0200008C0200008C02000055
:103340008C0200008C0200008C0200008C02000045
:103350008C0200008C0200008C0200008C02000035
:103360008C0200008C0200008C0200008C02000025
:103370008C020000620200008C0200008C0200003F
:103380008C0200008C02000078020000780200002D
:103390007802000062020000620200006202000087
:1033A000620200000C0200007802000062020000CD
:1033B000620200006202000062020000620200007D
:1033C000620200006202000062020000620200006D
:1033D00062020000620200000C020000780200009D
:1033E0008C02000062020000620200006202000023
:1033F00062020000620200008C0200008C020000E9
:1034000062020000620200000C0200000C020000D8
:1034100078020000780200007802000078020000C4
:10342000780200000C02000062020000620200004C
:10343000780200008C0200006202000062020000BC
:103440000C02000078020000780200007802000000
:103450007802000078020000780200007802000084
:103460007802000078020000780200007802000074
:103470000C0200008C0200000C020000204602F04A
:10348000B7FF0090401C3BD0D4E90C04012329E095
:10349000D4F8C4000028F6D0002102F09EFF8DF879
:1034A0000000F1E7D4F8C40058B1012102F095FF03
:1034B0008DF80000D4E90C0501236A46F021A847E5
:1034C0000126002E1CD000BFD4E90C0400231A46AC
:1034D000C2E0204602F08CFF0090401C10D0D4E9DE
:1034E0000C0402236A46B7E0204602F081FF0090F8
:1034F000401C05D0D4E90C040423F3E78DF8240024
:10350000C7E0297807208DF82400204602F020FF2C
:1035100095E6002001AA1154401CC0B22028FAD31D
:10352000002005E01318401CC0B2D9701D2804D239
:10353000D4F8C010095C0929F4D1D4F8C010421D98
:103540008A5C8DF80420C21D0930895C8DF8051055
:10355000D4F8C010202301AA085C8DF8060091E081
:1035600028796979EB7800EB012082B228786978B4
:1035700000EB0120A978090401EB03610144204616
:1035800002F01DFF5BE604A80090297805AB03AAB2
:10359000204603F06FF8BDF91400082300EB40004B
:1035A00040008DF80400010A8DF80510010C8DF81B
:1035B0000610000E8DF80700BDF810008DF8080009
:1035C000000A8DF80900BDF80C008DF80A00000A09
:1035D0008DF80B00D4E90C0501AAF021A84758E0AA
:1035E000E8792A7AAB7800EB022082B268782E79EB
:1035F00000EB0320EB7829781B0403EB06631844E7
:10360000062390FBF3F003B26879AD7900EB052057
:1036100000B20090204603F02AF910E62878697875
:10362000EA7800EB012001B2A87800EB022002B298
:10363000204603F089F847E70C208DF82400029516
:103640008DF80C90174902A802F0CFFE08B3154878
:1036500003790268D4E90C04F0211FE000206A46D7
:1036600004E01354401CC0B220280AD2D4F8C03061
:103670001B5C002BF5D102E01154401CC0B2202885
:10368000FAD32023D4E90C05F021A8471CE7012038
:1036900034E7D4E90C04012309AAFF21A0470BB0A9
:1036A000BDE8F08334000020AFF3008010B504467D
:1036B000006BE16B8847802084F8C800A16B206B09
:1036C000BDE810400847000001480068FFF74CBB08
:1036D0002C00002001480068FFF79CBB2C00002054
:1036E00001480068FFF7B7BB2C00002003460348E1
:1036F0000A4619460068FFF77ABB00002C0000203C
:10370000034603480A4619460068FFF777BB0000E6
:103710002C000020064810B50078002807D000F0E3
:1037200009F802F019FBBDE8104002F0E1BF10BD3E
:103730003006002010B50C4C2078012813D1608889
:1037400010B16088401E02E002F01CFA0320608085
:10375000A08810B1A088401EA080E088002802D078
:10376000E088401EE08010BD30060020014800685F
:10377000FFF79EBB2C00002001480068FFF7A3BBA9
:103780002C0000202DE9F35F574E002406F12C0198
:10379000347056480860564906F1240A0846CAF8AB
:1037A000001000F0B7FE05F0FFFE06F1340001F056
:1037B000B0FE504800F087FB06F110084D4906F1B5
:1037C0000C054D48C8F8001028604C48FDF74CFB2C
:1037D0004A4B4B4A4B482968FDF769FAD8F8001064
:1037E000464A286801F04AFE454803F0FEF846487C
:1037F00000F069FB454800F066FB05F1080042490E
:103800000160001D414901604148F06101F040FD47
:1038100005F11C013F480860F1693F4FC0E9437161
:103820003E4800F022FB05F114093C49C9F800109C
:1038300005F124013A48086001F0A2FC0020FDF7E0
:10384000A7FB4FF0010B87F824B0286801F0F6FDC4
:103850003861286801F0F2FD0014B88207F12800F1
:103860002F1F2D4B386005F128012A68FFF702FB56
:10387000286801F0F5FD014600223868FFF7B7FA25
:103880000098396801602448D8F80010443001607D
:1038900005F108010968416005F10C010968C0E9FA
:1038A0000214DAF80010C0E904141449C0E906143F
:1038B00004622968416205F128018162D9F800108B
:1038C000C162F169C0E90C1405F11C018463096847
:1038D000C0E90F1444648464C4640199086086F8E4
:1038E00000B0BDE8FC9F000030060020400400202E
:1038F0000802002050010020D4010020CC0200204A
:103900009C020020440300207C010020A80100202C
:10391000880300203C00002098080020600300205D
:103920002C0400200023B0F8002120F81210B0F879
:103930000021A0F80221521C92B2A0F80021802A96
:1039400002D30022A0F80021002230F912C0634403
:10395000521C92B2802AF8D3DA1703EB5262D211CA
:10396000A0F80421084670470021002220F8112009
:10397000491C89B28029F9D3A0F80021A0F80221BE
:103980007047B0F904017047F0B58DB0202168464A
:10399000FCF762FC00242848089409940A942549FD
:1039A0000B94016001254FF480310561C0E90114D9
:1039B000047680F820402149C0E90A140226C90291
:1039C000C661C16080F830404561FDF72FFD0620DB
:1039D000CDE900050294280507904FF460200327E5
:1039E00006908DF8154004978DF8145069461248DA
:1039F0000394FDF75DFB0820009069460E48FDF733
:103A000057FB0920009069460B48FDF751FB08A9B8
:103A10000A200B9481E8A1000748FDF74DFC0D201A
:103A2000CDE90806CDE90A6408A90348FDF744FC7E
:103A30000DB0F0BD00200140B40600200100000FD1
:103A400070B58CB020216846FCF706FC00242348A2
:103A5000089409940A9420490B94016001254FF4BD
:103A600080310561C0E90114047680F820401C49CA
:103A7000C0E90A14C902C561C16080F830404561DF
:103A8000FDF7D4FC03200490280507904FF4602034
:103A9000062606900096CDE901548DF815408DF864
:103AA000145069460D480394FDF702FB082000906E
:103AB00069460A48FDF7FCFA092000906946074864
:103AC000FDF7F6FA0896CDE9095408A90348FDF771
:103AD000F3FB0CB070BD000000210140FC0600208B
:103AE0000100000F30B587B014216846FCF7B4FB25
:103AF00033480024016841F010010160016801F0C1
:103B000010010591016841F002010160016801F0B6
:103B100002010591016841F004010160016801F0B2
:103B200004010591016841F001010160016801F0A3
:103B300001010591016841F480710160016801F49F
:103B400080710591016841F008010160016801F090
:103B500008010591016841F080010160016801F0F0
:103B600080010591016841F0400101600068164D37
:103B700000F040000590022000901248CDE90104B9
:103B800069462846FDF7C0FD012000900F48CDE9A9
:103B9000010469462846FDF7B7FD0320CDE900047E
:103BA00069460B480294FDF7AFFD0022114607203D
:103BB000FDF750FF0720FDF73FFF07B030BD0000C5
:103BC00030380240000011100010024000002110A7
:103BD0000018024008B5FEF747F84FF4FA61B0FB51
:103BE000F1F0FEF7D9FA0749081FFFF7CBFD05F002
:103BF000CBFB044B04481A1F00900121101F02F058
:103C000053FE08BD300000201096000810B50022B9
:103C100002211220FDF71EFF1220FDF70DFF0022EA
:103C200011462C20FDF716FF2C20FDF705FF012281
:103C300004212B20FDF70EFF2B20FDF7FDFE0022B7
:103C400003211C20FDF706FF1C20FDF7F5FE0122D5
:103C500003212520FDF7FEFE2520FDF7EDFE0022C5
:103C600011460620FDF7F6FEBDE810400620FDF7E0
:103C7000E3BE000010B58CB024216846FCF7ECFAD6
:103C80000024124809944FF080410A94C0E90014BE
:103C900040F69F71C0E90241046184610320CDE9CF
:103CA00000040120CDE9020406210491CDE905407C
:103CB000CDE9074169460548FEF738FB099409A993
:103CC00002480A94FEF7B5FA0CB010BD5807002060
:103CD00010B58CB024216846FCF7BEFA00241248C7
:103CE000099410490A94C0E900144FF6FF71C0E925
:103CF0000241046184610320CDE900040120CDE983
:103D000002040494CDE905400794694606480894E6
:103D1000FEF70CFB099409A903480A94FEF789FAF7
:103D20000CB010BD000400409807002070B596B09C
:103D300014210FA8FCF790FA002414941C21684663
:103D40001594FCF789FA202107A8FCF785FA2B487F
:103D500029494FF48075C0E900142021816041F2A7
:103D60008241C0E903150121C0E90514FEF7AEFA4E
:103D70002248FEF734FD06201026CDE90F060FA9D4
:103D80001E48FEF761FD149414A91C481594FEF713
:103D900050FA6020CDE90004029403940494059441
:103DA0000022694615480694FEF7ABFC04226946DA
:103DB0001248FEF7A6FC082269461048FEF7A1FC4F
:103DC0007020009041F2873001900C2269460B4828
:103DD000FEF797FCE800079040100E94CDE9080527
:103DE000CDE90A640C9407A90448FEF7EFF90348EB
:103DF000FEF748FC16B070BD00040140D807002053
:103E000010B504462078002803D00020E082E08A24
:103E100010BD94F8260001F0EFF80146A1F57F40AF
:103E2000FF3807D0208B421E238A5A431144B1FB2E
:103E3000F0F02082204600F02CF8E082E7E7002135
:103E4000018270470178002902D0808A00B2704751
:103E5000018A026A891AB0F91E205143CA17808C60
:103E600001EB124100EB2140F0E710B50446207849
:103E7000002804D00020E082608A208210BD201D2E
:103E800001F018F984F826002046BDE81040FFF73D
:103E9000D6BF018A428B914201D908207047828B9C
:103EA000914201D200207047C08A7047B0F92200C9
:103EB0007047B0F906007047408B7047B0F90400B6
:103EC0007047008B7047018881804188C180018CD8
:103ED0004184002181608162704781607047418424
:103EE0007047C180704781807047000070B4002423
:103EF000B0F91430B0F916C0B0F9042002FB01F695
:103F0000B0F90620002A0BD04A438568A918002979
:103F100009DA002D0CDD002A0ADD6FF0004107E010
:103F2000002181600FE0002D02DA002A00DA114939
:103F3000C2688A4201DA826005E002698A4201DDD4
:103F4000826000E08160827F8168057F41FA02F231
:103F500046FA05F52A449A4202DD9C1A1A4604E004
:103F6000624502DAACEB020462462144816070BC17
:103F700010B270470100008030B583B00446D4F819
:103F80000C01C1680291D0F816000190BDF808003C
:103F9000BDF8041010FB01F0BDF80A10BDF80620B2
:103FA00011FB0200C11700EB11400514D4F81001F9
:103FB00002F000FDD4F8081148434FF4167190FB4D
:103FC000F1F0684300EB40004000084981FB00101D
:103FD0008110A1EBE070C11700EB1140011403B098
:103FE0002046BDE83040FFF79DBC0000676666666E
:103FF000016B084770B504460025002902D001294D
:104000000DD01AE0204600F015F9B4F86200A4F8CB
:10401000520090B921692046884701250DE0B4F887
:10402000520048B1401E80B2A4F8520028B921695C
:1040300020468847012500E00125284670BD4268DA
:10404000104733B4B0F84420BDF9041001FB02F36B
:10405000BDF90620B0F860104A435200524202EB0C
:10406000030C0CEBDC7C4FEA6C0CD31A03EBD37320
:104070005B10BCF1000F4FDA002B17DA0422A0F816
:104080004620ACEB0302D41702EB9432921402EBFD
:104090009101DA1703EBD23201EB62434FEAEC7283
:1040A0000CEBD232A1EB624C826A84E0002A1BDC6A
:1040B0004FF0030CA0F846C0A2EB030C4FEAEC74DF
:1040C0000CEB943C4FEAAC4C0CEB91014FEAE37CD7
:1040D00003EBDC3301EB63434FEAE27C02EBDC32BF
:1040E000A3EB624C426A66E00223A0F84630ACEBD8
:1040F0000203DC1703EB94339B1403EB91014FEAAB
:10410000EC730CEBD333A1EB634CD31702EBD3323C
:104110000CEB6243026A4EE0002B17DB0122A0F891
:104120004620ACEB0302D41702EB9432921402EB5C
:104130009101DA1703EBD23201EB62434FEAEC72E2
:104140000CEBD232A1EB624CC26934E0002A17DCDE
:104150000523A0F84630ACEB0203DC1703EB9433E5
:104160009B1403EB91014FEAEC730CEBD333A1EBFF
:10417000634CD31702EBD3320CEB6243C26A1AE0F2
:104180004FF0000CA0F846C0A2EB030C4FEAEC7411
:104190000CEB943C4FEAAC4C0CEB91014FEAE37C06
:1041A00003EBDC3301EB63434FEAE27C02EBDC32EE
:1041B000A3EB624C826989B2A0F848109BB2A0F8C8
:1041C0004A301FFA8CFCA0F84CC0B0F85C40012CBF
:1041D0002DD1B0F95640002C05DDB0F85E402144E9
:1041E000A0F8481004E0B0F85E40091BA0F84810A1
:1041F000B0F95810002905DDB0F85E101944A0F898
:104200004A1004E0B0F85E10591AA0F84A10B0F94C
:104210005A10002905DDB0F85E106144A0F84C107A
:1042200005E0B0F85E10ACEB0101A0F84C1002B054
:1042300030BC104781680847D0F890100A7D022AE8
:104240000FD18A69898C09049161D0F890100A6AAB
:10425000898B09049161D0F890108A6A898D0904CC
:104260009161012180F88C1054307047F0B50446FC
:10427000D4F8900085680027E7662767676784F8A9
:104280008370286A4EF6AA2108402862324860608E
:10429000D4F890000079C003A067D4F8900040796A
:1042A000C003E067204600F099FD94F883001026D3
:1042B000102809D2E86800F0010008B984F883608A
:1042C00094F883001028F5D384F883702348606045
:1042D000D4F890008179C903A1678079C003E067B1
:1042E000204600F07BFD94F88300082809D2E86896
:1042F00000F0010008B984F8836094F8830008286E
:10430000F5D3E06EC008E066206FC0082067606FDC
:10431000C008606712486060A9694FF2F7700140F9
:10432000A961E9690840E861B4F880006863B4F8FD
:104330008000A863B4F88000E863A96940F608002B
:104340000143A961E9690843E861286A40F25551CF
:1043500008432862F0BD000091440008D5440008DD
:104360006543000830B4D0F8903000229B682033B9
:104370005B0103F184431A6380F8822090F84620A1
:10438000414C424B47F6FF7C062A6FD2DFE802F031
:10439000254A4A030325E26B5200C56EAA1A12F59C
:1043A000004F01DC0B8006E0B2F5004F02DBA1F804
:1043B00000C000E00A80D4F83C215200046FA21A29
:1043C00012F5004F01DC4B8050E0B2F5004F02DBEC
:1043D000A1F802C04AE04A8048E0E26B5200056F53
:1043E000AA1A12F5004F01DC4B8006E0B2F5004F2F
:1043F00002DBA1F802C000E04A80D4F83C21520060
:10440000446F121BB1F90240121BB2F5004F02DBE0
:10441000A1F800C02AE012F5004F01DC0B8025E076
:104420000A8023E0E26B5200C56EAA1A12F5004F13
:1044300001DC0B8006E0B2F5004F02DBA1F800C002
:1044400000E00A80D4F83C215200446F121BB1F9FD
:104450000040121BB2F5004F02DBA1F802C005E0DC
:1044600012F5004F01DC4B8000E04A800A88A0F87A
:1044700056204A88A0F858200A88498811444942A1
:10448000A0F85A1030BC7047002001400180FFFFA7
:10449000D0F89020002192682032520102F184422B
:1044A000116380F8821090F8831010290ED2084909
:1044B000C26ECB6B1A44C266026FD1F83C11114434
:1044C000016790F88310491C80F883107047000042
:1044D00000200140D0F89020002192682032520143
:1044E00002F18442116380F8821090F88310082949
:1044F0000DD2074A416FD36B19444167D2F83C2172
:104500001144416790F88310491C80F8831070476C
:104510000020014010B504462146D4F89000806880
:1045200000F0A4FCD4F89000224A8168224891420D
:1045300004D1C16841F00101C16003E0C16841F0EC
:104540000201C1601D48816841F0010181601C4980
:104550008B6843F001038B606FF0040101604168D8
:1045600041F080014160C16A21F47001C162D4F858
:1045700090108968914209D1806820F47C10C4F8B9
:10458000880040F48010C4F8840008E0806820F4BB
:104590007C10C4F8880040F4F010C4F884000020B7
:1045A00084F88C00A4F85C00B4F86400A4F85E0001
:1045B00010BD000000000140002004E00020014088
:1045C00000210140002190F88C20012A03D14021D4
:1045D000002280F88C2008467047000070B5054620
:1045E000D5F89000846895F85500012865D16022BF
:1045F00001212046FEF77AFB206A40F0010020628C
:10460000D5F89000007D012802D0022805D008E0EE
:10461000206A40F00400206203E0206A20F00400D9
:104620002062B5F8800040086063602210212046B7
:10463000FEF75CFB206A40F010002062D5F8900085
:10464000007D012802D0022805D008E0206A40F051
:104650004000206203E0206A20F040002062B5F8AC
:1046600080004008A06360224FF480712046FEF76E
:104670003DFB206A40F480702062D5F89000007DF8
:10468000012802D0022805D008E0206A40F48060AA
:10469000206203E0206A20F480602062B5F8800088
:1046A0004008E06305486860054868610548E860BF
:1046B0000548A860002085F8550070BD65430008D6
:1046C000814F0008DD4D0008634D000870B50546B8
:1046D000D5F89000846895F85500002841D16022F3
:1046E00001212046FEF702FB206A40F00100206213
:1046F000206A20F00400206200206063D5F890005A
:10470000007D012802D002280ED01AE010221146A6
:104710002046FEF7EBFA206A20F010002062206AA3
:1047200040F0400020620CE0202210212046FEF7DD
:10473000DDFA206A40F010002062206A20F040007C
:10474000206270224FF480712046FEF7CFFA206A73
:1047500020F480702062206A20F480602062286F3C
:10476000E86606486860064868610648E8600648EA
:10477000A860012085F8550070BD00002D48000894
:10478000294900085D480008634D0008D0F89020D2
:104790009268B0F880305943090CA0F84810D169EC
:1047A00048F6FF731940D161D16941F4C041D1612C
:1047B000B0F88010B0F86630C91A1164B0F868100B
:1047C000D163B0F8481051631749D0F888308B6036
:1047D000D0F88830C1F80831136A43F4805313626B
:1047E000D0F884308B60D0F88430C1F80831D0F82C
:1047F00090305B79DB038B63D0F890301B79DB035F
:10480000C1F83831116911F0010F01D0012100E028
:104810000021B0F84E20012A03D101210022A0F886
:104820004E2008467047000000200140002280F81A
:104830008220084AD26B5200006F801A064A9042CA
:1048400004DD520C904202DB104600E01046088066
:1048500048807047002001400180FFFFD0F8901091
:1048600089686FF001030B610A6902F00102002AF6
:10487000FAD00B6101224A63B0F88020521F0A640B
:104880000A6902F00102002AFAD04A6C42F400429E
:104890004A64D0F89020137D022B24D10B6A40F299
:1048A000555C13EA0C0F0ED09369D2699A61D0F867
:1048B0009020136A526A9A61D0F89020936A928D80
:1048C00012049A610FE09369928B12049A61D0F8F6
:1048D0009020136A928C12049A61D0F89020936A07
:1048E000928D12049A610F4AD0F888309360D0F804
:1048F0008830C2F808310B6A43F480530B62D0F859
:1049000084109160D0F88410C2F80811D0F890108B
:104910004979C9039163D0F890004079C003C2F887
:104920003801704700200140D0F8901089680022BB
:104930004A63921E0A610A6902F00102002AFAD053
:104940004A6C42F400424A64D0F890100A7D022A70
:104950000ED18A69C9699161D0F890100A6A898C70
:1049600009049161D0F89000816A808D000488610B
:104970007047F0B44FF48012D0F890108E68D0F8E1
:10498000841021F44011C0F88410B0F88030B0F8E1
:104990004810A3EB010C1FFA8CF4D0F890C0BCF8BF
:1049A0001050AC4211D90321A0F84610B0F8801085
:1049B000491E89B2D0F890301B79DB038367D0F8A9
:1049C00090305B79DB03C3671EE0B0F84A70CF1B01
:1049D000BFB2B7EB440F04D9BCF81230C91A89B280
:1049E00009E0294489B28B4205D84FF40012C1EB8B
:1049F0004301491E89B29CF80530DB038367D0F878
:104A000090309B79DB03C367D0F884301A43C0F839
:104A100084203164F0BC00F0DBBAF0B44FF48012B3
:104A2000D0F890108E68D0F8841021F44011C0F8AE
:104A30008410B0F88030B0F84A10A3EB010C1FFAD4
:104A40008CF4D0F890C0BCF81050AC4211D90321BE
:104A5000A0F84610B0F88010491E89B2D0F8903006
:104A60001B79DB038367D0F890305B79DB03C36786
:104A70001EE0B0F84870CF1BBFB2B7EB440F04D9AB
:104A8000BCF81230C91A89B209E0294489B28B42B4
:104A900005D84FF40012C1EB4301491E89B29CF8BE
:104AA0000430DB038367D0F890309B79DB03C36766
:104AB000D0F884301A43C0F884203164F0BC00F090
:104AC00087BAF0B44FF48012D0F890108E68D0F806
:104AD000841021F44011C0F88410B0F88030B0F890
:104AE0004A10A3EB010C1FFA8CF4D0F890C0BCF86C
:104AF0001050AC4211D90321A0F84610B0F8801034
:104B0000491E89B2D0F890301B79DB038367D0F857
:104B100090305B79DB03C3671EE0B0F84C70CF1BAD
:104B2000BFB2B7EB440F04D9BCF81230C91A89B22E
:104B300009E0294489B28B4205D84FF40012C1EB39
:104B40004301491E89B29CF80430DB038367D0F827
:104B500090309B79DB03C367D0F884301A43C0F8E8
:104B600084203164F0BC00F033BAF0B44FF480120A
:104B7000D0F890108E68D0F8841021F44011C0F85D
:104B80008410B0F88030B0F84C10A3EB010C1FFA81
:104B90008CF4D0F890C0BCF81050AC4211D903216D
:104BA000A0F84610B0F88010491E89B2D0F89030B5
:104BB0001B79DB038367D0F890305B79DB03C36735
:104BC0001EE0B0F84A70CF1BBFB2B7EB440F04D958
:104BD000BCF81230C91A89B209E0294489B28B4263
:104BE00005D84FF40012C1EB4301491E89B29CF86D
:104BF0000430DB038367D0F890305B79DB03C36755
:104C0000D0F884301A43C0F884203164F0BC00F03E
:104C1000DFB9F0B44FF48012D0F890108E68D0F85D
:104C2000841021F44011C0F88410B0F88030B0F83E
:104C30004C10A3EB010C1FFA8CF4D0F890C0BCF818
:104C40001050AC4211D90321A0F84610B0F88010E2
:104C5000491E89B2D0F890301B79DB038367D0F806
:104C600090305B79DB03C3671EE0B0F84870CF1B60
:104C7000BFB2B7EB440F04D9BCF81230C91A89B2DD
:104C800009E0294489B28B4205D84FF40012C1EBE8
:104C90004301491E89B29CF80430DB038367D0F8D6
:104CA00090305B79DB03C367D0F884301A43C0F8D7
:104CB00084203164F0BC00F08BB9F0B44FF4801262
:104CC000D0F890108E68D0F8841021F44011C0F80C
:104CD0008410B0F88030B0F84810A3EB010C1FFA34
:104CE0008CF4D0F890C0BCF81050AC4211D903211C
:104CF000A0F84610B0F88010491E89B2D0F8903064
:104D00001B79DB038367D0F890305B79DB03C367E3
:104D10001EE0B0F84C70CF1BBFB2B7EB440F04D904
:104D2000BCF81230C91A89B209E0294489B28B4211
:104D300005D84FF40012C1EB4301491E89B29CF81B
:104D40000530DB038367D0F890309B79DB03C367C2
:104D5000D0F884301A43C0F884203164F0BC00F0ED
:104D600037B9D0F890108968002280F85020CA68BE
:104D700022F00102CA600A6A4FF6AA231A400A62A8
:104D80000A6902F00102002A08D1CA6802F0010291
:104D900022B90A6902F00102002AF6D04A6C22F414
:104DA00000424A64D0F89020137D022B0FD1936902
:104DB000928B12049A61D0F89020136A928C12049C
:104DC0009A61D0F89000826A808D00049061086A30
:104DD00040F255521043086270470000D0F890101E
:104DE0008968002280F850201F4A136823F00C03C2
:104DF0001360D2F8003123F00C03C2F800316FF0D9
:104E000001020A61CA6842F00102CA604A6C42F4B7
:104E100000424A64D0F89020137D022B11D1096A18
:104E200040F2555319420DD09169D2698A61D0F888
:104E300090100A6A496A9161D0F89000816AC06A4C
:104E4000886170479169928B12048A61D0F8901042
:104E50000A6A898C09049161D0F89000816A808D7A
:104E600000048861704700000020014070B50446CE
:104E70000D46206820F00100206001212046FDF74A
:104E800009FF10212046FDF705FF4FF480712046F1
:104E9000FDF700FF4FF480512046FDF7FBFED5F8EB
:104EA000900090F8300030B16FF080002061E06831
:104EB00040F08000E060606940F001006061D5F87A
:104EC00090008178022908D095F85400002803D179
:104ED000B5F88000401E606270BDC17801290AD11A
:104EE000807B032807D101202063606940F0010026
:104EF000606103202063B5F88000401E606270BDD1
:104F0000D0F890C0DCF80810012280F882201B4BFA
:104F10001A6802F00C02082A01D032B115E01A68B2
:104F200002F00C020C2AFAD10FE0BCF80020D1F8F4
:104F300024C09445FBD31A6802F00C02082A04D15D
:104F40001A6802F00C020C2AFAD1D0F888209A6074
:104F5000D0F88820C3F808210A6A42F480520A6215
:104F6000D0F884109960D0F88410C3F80811816FCC
:104F70009963C16FC3F83811543070470020014065
:104F8000D0F890108968012280F85020D21E0A6162
:104F900000224A638A63CA630A6902F00102002A96
:104FA000FAD04A6C42F400424A64D0F890100A7D6C
:104FB000022A0CD18A69C9699161D0F890100A6AF5
:104FC000496A9161D0F89000816AC06A886170472F
:104FD000D0F890108968B0F848204A63B0F84A20A9
:104FE0008A63B0F84C20CA6390F88200002801D090
:104FF000012070470020704770B51C494FF40074C1
:1050000051F820201568127902EB4203092A03D8CF
:10501000260446EA035302E0154E06EB03531A43F7
:105020004FF4407393FAA3F3B3FA83F3DC4005EB38
:105030008403DC6A02F01F0224F01F041443DC62C4
:1050400051F820201268D36C0123520102F18442EE
:10505000C2F8783151F8200000680168C1F34001BE
:105060000029FAD0C06C80B270BD00002C0900206D
:10507000000020FE70B50D4C6078012814D1207816
:10508000FFF7BAFF6080014602206070084A20786E
:1050900052F83030002B07D0002502EBC0026570BB
:1050A0005268BDE87040184770BD00006A060020D5
:1050B0003C090020F0B50246FF232F4C1579002053
:1050C00054F8201011B9042B00D903460E79AE42D2
:1050D00005D109681668B14201D103460420401C7D
:1050E000C0B20428ECD3042B43D223490020103152
:1050F00044F8232041F833001068816811F0010F53
:1051000003D1816841F0010181601068C16A21F416
:105110007001C162117910684FF00074092901EB28
:10512000410502D844EA055502E0144E06EB055548
:10513000294394FAA4F401F00075B4FA84F4E5402C
:1051400000EB85009268C4684FF0F87595FAA5F6F3
:1051500001F0F871B6FA86F621FA06F60727B7408D
:1051600095FAA5F5B5FA85F5E940BC438A401443A4
:10517000C4601846F0BD00002C090020000020FE8D
:105180000021416041808160C1600121016170475F
:1051900090F84800704701EB410100EB81008089E5
:1051A000704701EB410100EB8100B0F90E00704740
:1051B00001EB410100EB8100B0F91000704701EBF9
:1051C000410100EB81008281704701EB410100EB5E
:1051D0008100C281704701EB410100EB8100028236
:1051E000704710B5044694F83400FFF705FF844675
:1051F000ACF57F41FF3923D094F8330004EB400035
:10520000A0F81EC000210020228B002A07D904EB41
:105210004003DB8B1944401CC0B28242F7D8B1FB7B
:10522000F2F0E080A4F804C094F83300511E8842E4
:1052300003DA401C84F8330002E0002084F83300D5
:10524000204600F002F8208110BDC188428B9142B7
:1052500001D902207047808B814201D2042070471F
:1052600000207047418B828B11444A080021038B38
:10527000002B07D900EB4103DA83491C89B2038B69
:105280008B42F7D88280C280002180F833107047AB
:1052900010B5044604F10C00FFF70CFF84F834004D
:1052A0002046BDE81040FFF7DDBFB0F904007047AD
:1052B000B0F900007047B0F90410C1EBC131B0F98A
:1052C0000C0091FBF0F000B2704730B4012590F86B
:1052D00010C00023827AB1F90040002C02DA61424A
:1052E00089B200E0098884898C4200D20123C489F4
:1052F0008C4200D90123B0F90810002902DA494292
:1053000089B200E00189448A8C4200D2012323B192
:10531000624505D2511CCAB202E0624500D20022A9
:10532000624500D100258272284630BC704770B5B6
:1053300004462178002909D06568E068012807D96A
:10534000A2691544A0F10100E06008E0A568F4E757
:1053500005D160884FEA00454FF00000E060012968
:1053600005D0A560E81705EB1040001470BDE817E4
:1053700005EB104006146069FFF797FF301A01B281
:105380002069FEF7B3FD65600104A16070BD01787E
:10539000012903D100690021FEF79FBD704730B598
:1053A00003460C4601251878002806D058680114D9
:1053B000D88BA0420FDA00251BE0184600F058F801
:1053C0000146D88CA04200DA0025B3F92800A0429B
:1053D0000FDD00250DE0B3F92400A04201DD00251A
:1053E00007E0188CA04204DDB3F92200A04200DAE5
:1053F000002575B17AB15C80988B50434FF47A7276
:10540000B0FBF2F0401CD860611A090491FBF0F087
:105410009861284630BD19782004012904D098608D
:105420000020D8609861F4E75860F9E710B50446A9
:105430006069FFF73AFF0004606010BD81B0C18D64
:10544000ADF80010008EADF80200009801B0704772
:10545000C08B70474068C11700EB114000147047C3
:10546000B0F92C007047B0F92400704740697047CC
:105470008068C11700EB1140001470470161426160
:1054800090F82A100170818D09044160C18D0904D2
:10549000816000214180C1608161704701700021FD
:1054A000C16070474161704700210278012A01D133
:1054B000C160012108467047002102780B2A04D1FF
:1054C000092101700021818001210846704703787D
:1054D000B0F802C04CEA010C2CEA02024280B0F89B
:1054E00004C04CEA010181800A2B05D012B10A21C7
:1054F00001700A2318467047002AFBD10B21017066
:105500000B23F7E78188408841EA00407047007824
:1055100070470021017041808180704710B50024E0
:105520000278132A48D2DFE802F00F18363B5D6498
:105530006B70757A7F7F0A21282F484F560000290B
:1055400072D10A4601246FE0032903D0012901D05A
:105550000C2969D10A46012466E0072903D00D29E8
:1055600001D00E2960D10A4601245DE00E2901D048
:10557000072959D10A46012456E00F2901D00729ED
:1055800052D10A4601244FE0022901D007294BD10C
:105590000A46012448E0072946D10A46012443E08F
:1055A000072907D0102905D0042903D0112901D0DB
:1055B000012939D10A46012436E0112901D00729F1
:1055C00032D10A4601242FE0122901D007292BD11C
:1055D0000A46012428E0042901D0072924D10A46DB
:1055E000012421E0052901D007291DD10A46012403
:1055F0001AE0062901D0072916D10A46012413E032
:10560000072911D10A4601240EE008290CD10A46C7
:10561000012409E0092907D10A46012404E009B15F
:105620000C2901D10A4601240CB1027009E00329BA
:1056300007D0012905D0072903D000228021FFF7D8
:1056400046FF204610BD000010B5084C2078022807
:1056500005D1FCF793F9FCF7B3FD00202070C0B230
:10566000401C2070BDE81040FEF754B86E060020C4
:1056700030B593B030216846FAF7EEFD14210CA83E
:10568000FAF7EAFD1A480025016841F080510160EF
:10569000006800F0805011901648016841F4804184
:1056A00001600068022400F4804011900120009005
:1056B000000401908001CDE9064008AA0420A82139
:1056C00082E813000B906846FCF72AFB0CA90F2018
:1056D00081E831004FF4A0500F90E00210900521B6
:1056E0000CA8FCF7FDF9FCF7B9FA13B030BD0000C7
:1056F00040380240007000400548016841F47001E4
:10570000016003494FF00060803908607047000075
:1057100088ED00E00848006AC16811F0010F09D067
:10572000016911F0010F05D06FF00101016102481C
:10573000FBF795BB70470000CC0200200148FCF746
:10574000E7BE000098070020094810B5D0F8900087
:1057500080680169C1F3C01129B16FF08001016156
:105760000348FEF769FDBDE81040FDF7E3BF000008
:105770000802002004486FF00101D0F89000806812
:1057800001610148FFF7BCBB08020020F0B40268C9
:105790002C4B2D4C2D4D2E4EDFF8B8C098420AD020
:1057A000B0F1804F07D0A04205D0A84203D0B0424C
:1057B00001D0604503D122F070024F683A4398420D
:1057C00028D0B0F1804F25D0A04223D0A84221D0CC
:1057D000B0421FD060451DD0A0F18044B4F5A03484
:1057E00018D0A0F18044B4F5A23413D0A0F18044C5
:1057F000B4F5A4340ED0A0F18044B4F5C05409D05F
:10580000A0F18044B4F5E05404D0A0F18044B4F594
:10581000005403D122F44072CC6822434C6922F038
:105820008002224302608A68C2620A6882629842E9
:1058300001D0604501D10969016301214161F0BCDA
:1058400070470000000001400004004000080040D4
:10585000000C00400004014001F01F0101238B40B7
:10586000D0F820C02CEA03030362036A02FA01F1B4
:10587000194301627047D0F808C02CF47F4C42EA0B
:105880000322114341EA0C018160704770B4026A3F
:1058900022F001020262036A4268D0F818C02CF0BC
:1058A000700C2CF0030C0C6844EA0C0C23F002037F
:1058B0008C6823430F4C104DA04201D0A84205D163
:1058C00023F00803CE68334323F00403A04201D041
:1058D000A84207D122F4807222F400724C6922435C
:1058E0008C6922434260C0F818C049684163036272
:1058F00070BC7047000001400004014070B4026AAF
:1059000022F010020262036A4268D0F818C02CF438
:10591000E04C2CF4407C0C684CEA042C23F020036F
:105920008C6843EA0413114C114DA04201D0A842E7
:1059300006D123F08003CE6843EA061323F0400328
:10594000A04201D0A84209D122F4806222F4006270
:105950004C6942EA84028C6942EA84024260C0F8DF
:1059600018C049688163036270BC70470000014041
:105970000004014070B4026A22F480720262036A79
:105980004268D0F81CC02CF0700C2CF0030C0C6892
:1059900044EA0C0C23F400738C6843EA0423114C92
:1059A000114DA04201D0A84206D123F40063CE6875
:1059B00043EA062323F48063A04201D0A84209D120
:1059C00022F4805222F400524C6942EA04128C699B
:1059D00042EA04124260C0F81CC04968C163036215
:1059E00070BC7047000001400004014010B4026A1E
:1059F00022F480520262D0F820C04268C36923F4C6
:105A0000E04323F440730C6843EA04232CF4005C65
:105A10008C684CEA043CA0F18044B4F5803404D096
:105A2000A0F18044B4F5823404D122F480424C6960
:105A300042EA84124260C36149680164C0F820C030
:105A400010BC704710B50268936823F07003D1F85A
:105A500004C04CEA030323F00703D1F800C04CEA6A
:105A6000030393604A6812F00F0F33D11211082A12
:105A700030D2DFE802F02F2F2F2F0B242A040B69DE
:105A80008A68C9680068FFF7F6FE23E00A68052AFD
:105A900013D00268136AD2F820C02CF0010CC2F8AF
:105AA00020C00268D2F818C02CF0F00C09694CEA4A
:105AB00001119161006803620CE0012010BD0A69C8
:105AC0008968006800F008F804E00A6989680068DD
:105AD00000F015F8002010BD036AD0F820C02CF0AB
